{"project/contracts/JudiciaryEngine.sol":{"JudiciaryEngine":{"abi":[{"inputs":[{"internalType":"address","name":"_jurorManager","type":"address"}],"stateMutability":"nonpayable","type":"constructor"},{"anonymous":false,"inputs":[{"indexed":true,"internalType":"uint256","name":"disputeId","type":"uint256"},{"indexed":false,"internalType":"string","name":"ruling","type":"string"}],"name":"DisputeEnforced","type":"event"},{"anonymous":false,"inputs":[{"indexed":true,"internalType":"uint256","name":"disputeId","type":"uint256"},{"indexed":true,"internalType":"uint256","name":"jobId","type":"uint256"},{"indexed":false,"internalType":"address[]","name":"panel","type":"address[]"}],"name":"DisputeOpened","type":"event"},{"anonymous":false,"inputs":[{"indexed":true,"internalType":"uint256","name":"disputeId","type":"uint256"},{"indexed":true,"internalType":"address","name":"juror","type":"address"},{"indexed":false,"internalType":"enum JudiciaryEngine.Vote","name":"vote","type":"uint8"}],"name":"VoteCast","type":"event"},{"stateMutability":"payable","type":"fallback"},{"inputs":[{"internalType":"uint256","name":"_disputeId","type":"uint256"},{"internalType":"enum JudiciaryEngine.Vote","name":"_vote","type":"uint8"}],"name":"castVote","outputs":[],"stateMutability":"nonpayable","type":"function"},{"inputs":[],"name":"disputeCount","outputs":[{"internalType":"uint256","name":"","type":"uint256"}],"stateMutability":"view","type":"function"},{"inputs":[{"internalType":"uint256","name":"","type":"uint256"}],"name":"disputes","outputs":[{"internalType":"uint256","name":"itemId","type":"uint256"},{"internalType":"address","name":"appraiser","type":"address"},{"internalType":"address","name":"client","type":"address"},{"internalType":"uint256","name":"jobId","type":"uint256"},{"internalType":"enum JudiciaryEngine.DisputeStatus","name":"status","type":"uint8"},{"internalType":"uint256","name":"clientVotes","type":"uint256"},{"internalType":"uint256","name":"appraiserVotes","type":"uint256"}],"stateMutability":"view","type":"function"},{"inputs":[{"internalType":"uint256","name":"","type":"uint256"},{"internalType":"address","name":"","type":"address"}],"name":"hasVoted","outputs":[{"internalType":"bool","name":"","type":"bool"}],"stateMutability":"view","type":"function"},{"inputs":[{"internalType":"uint256","name":"_itemId","type":"uint256"},{"internalType":"address","name":"_appraiser","type":"address"},{"internalType":"uint256","name":"_jobId","type":"uint256"},{"internalType":"address","name":"_client","type":"address"}],"name":"initiateDispute","outputs":[{"internalType":"uint256","name":"","type":"uint256"}],"stateMutability":"nonpayable","type":"function"},{"inputs":[],"name":"jurorManager","outputs":[{"internalType":"contract JurorManager","name":"","type":"address"}],"stateMutability":"view","type":"function"},{"inputs":[{"internalType":"uint256","name":"","type":"uint256"},{"internalType":"address","name":"","type":"address"}],"name":"jurorVotes","outputs":[{"internalType":"enum JudiciaryEngine.Vote","name":"","type":"uint8"}],"stateMutability":"view","type":"function"},{"stateMutability":"payable","type":"receive"}],"evm":{"bytecode":{"linkReferences":{},"object":"608060405234801561000f575f80fd5b50604051610a32380380610a3283398101604081905261002e91610052565b5f80546001600160a01b0319166001600160a01b039290921691909117905561007f565b5f60208284031215610062575f80fd5b81516001600160a01b0381168114610078575f80fd5b9392505050565b6109a68061008c5f395ff3fe60806040526004361061006d575f3560e01c806366fc1ff21161004a57806366fc1ff21461015c578063a28889e1146101a2578063c03b0e5a146101c5578063f2d0d010146101e457005b80634385963214610076578063564a565d146100c4578063567813881461013d57005b3661007457005b005b348015610081575f80fd5b506100af6100903660046106b4565b600460209081525f928352604080842090915290825290205460ff1681565b60405190151581526020015b60405180910390f35b3480156100cf575f80fd5b5061012a6100de3660046106e2565b600260208190525f9182526040909120805460018201549282015460038301546005840154600685015460079095015493956001600160a01b0390811695931693919260ff9091169187565b6040516100bb979695949392919061070d565b348015610148575f80fd5b50610074610157366004610760565b61021a565b348015610167575f80fd5b506101956101763660046106b4565b600360209081525f928352604080842090915290825290205460ff1681565b6040516100bb9190610786565b3480156101ad575f80fd5b506101b760015481565b6040519081526020016100bb565b3480156101d0575f80fd5b506101b76101df3660046107a0565b6103bb565b3480156101ef575f80fd5b505f54610202906001600160a01b031681565b6040516001600160a01b0390911681526020016100bb565b5f82815260026020526040812090805b600483015481101561028957336001600160a01b0316836004018281548110610255576102556107e7565b5f918252602090912001546001600160a01b0316036102775760019150610289565b806102818161080f565b91505061022a565b505f8481526003602090815260408083203384529091529020805484919060ff191660018360028111156102bf576102bf6106f9565b02179055505f8481526004602090815260408083203384529091529020805460ff191660019081179091558360028111156102fc576102fc6106f9565b0361031c57600682018054905f6103128361080f565b919050555061034c565b6002836002811115610330576103306106f9565b0361034c57600782018054905f6103468361080f565b91905055505b336001600160a01b0316847feba4866100b822f0f391e610e7edfab790b9e8766c0012733c26b2f1858e8dd7856040516103869190610786565b60405180910390a36004820154600783015460068401546103a79190610827565b036103b5576103b584610507565b50505050565b600180545f91826103cb8361080f565b90915550505f805460015460405163cbd8866360e01b81526004810191909152600360248201526001600160a01b039091169063cbd88663906044015f60405180830381865afa158015610421573d5f803e3d5ffd5b505050506040513d5f823e601f3d908101601f191682016040526104489190810190610864565b600180545f9081526002602081815260409092208a815592830180546001600160a01b03808c166001600160a01b03199283161790925591840180549189169190921617905560038201879055825192935090916104ae91600484019190850190610626565b5060058101805460ff191690556001546040518691907fbc02dbd6dbd37ab9895e57daef2a60aca03bc60198afdc22eff1bc4d3a8218fa906104f1908690610924565b60405180910390a3505060015495945050505050565b5f81815260026020526040902060058101805460ff191660011790556007810154600682015411156105b557817f023027f09420c04297fd9fac15c0dd47bc6d9694cbb247239e45a398bdff88ba6040516105a9906020808252602d908201527f52554c494e473a20436c69656e742056696e646963617465642e20417070726160408201526c34b9b2b91029b630b9b432b21760991b606082015260800190565b60405180910390a25050565b817f023027f09420c04297fd9fac15c0dd47bc6d9694cbb247239e45a398bdff88ba6040516105a99060208082526028908201527f52554c494e473a2041707072616973657220436c6561722e2052656c656173656040820152671022b9b1b937bb9760c11b606082015260800190565b828054828255905f5260205f20908101928215610679579160200282015b8281111561067957825182546001600160a01b0319166001600160a01b03909116178255602090920191600190910190610644565b50610685929150610689565b5090565b5b80821115610685575f815560010161068a565b6001600160a01b03811681146106b1575f80fd5b50565b5f80604083850312156106c5575f80fd5b8235915060208301356106d78161069d565b809150509250929050565b5f602082840312156106f2575f80fd5b5035919050565b634e487b7160e01b5f52602160045260245ffd5b8781526001600160a01b038781166020830152861660408201526060810185905260e0810160028510610742576107426106f9565b8460808301528360a08301528260c083015298975050505050505050565b5f8060408385031215610771575f80fd5b823591506020830135600381106106d7575f80fd5b602081016003831061079a5761079a6106f9565b91905290565b5f805f80608085870312156107b3575f80fd5b8435935060208501356107c58161069d565b92506040850135915060608501356107dc8161069d565b939692955090935050565b634e487b7160e01b5f52603260045260245ffd5b634e487b7160e01b5f52601160045260245ffd5b5f60018201610820576108206107fb565b5060010190565b8082018082111561083a5761083a6107fb565b92915050565b634e487b7160e01b5f52604160045260245ffd5b805161085f8161069d565b919050565b5f6020808385031215610875575f80fd5b825167ffffffffffffffff8082111561088c575f80fd5b818501915085601f83011261089f575f80fd5b8151818111156108b1576108b1610840565b8060051b604051601f19603f830116810181811085821117156108d6576108d6610840565b6040529182528482019250838101850191888311156108f3575f80fd5b938501935b828510156109185761090985610854565b845293850193928501926108f8565b98975050505050505050565b602080825282518282018190525f9190848201906040850190845b818110156109645783516001600160a01b03168352928401929184019160010161093f565b5090969550505050505056fea26469706673582212208ad5b17c2214a6b93200dff660035f77c341a7a3bf8493fedb66dd66d2de587464736f6c63430008140033","opcodes":"PUSH1 0x80 PUSH1 0x40 MSTORE CALLVALUE DUP1 ISZERO PUSH2 0xF JUMPI PUSH0 DUP1 REVERT JUMPDEST POP PUSH1 0x40 MLOAD PUSH2 0xA32 CODESIZE SUB DUP1 PUSH2 0xA32 DUP4 CODECOPY DUP2 ADD PUSH1 0x40 DUP2 SWAP1 MSTORE PUSH2 0x2E SWAP2 PUSH2 0x52 JUMP JUMPDEST PUSH0 DUP1 SLOAD PUSH1 0x1 PUSH1 0x1 PUSH1 0xA0 SHL SUB NOT AND PUSH1 0x1 PUSH1 0x1 PUSH1 0xA0 SHL SUB SWAP3 SWAP1 SWAP3 AND SWAP2 SWAP1 SWAP2 OR SWAP1 SSTORE PUSH2 0x7F JUMP JUMPDEST PUSH0 PUSH1 0x20 DUP3 DUP5 SUB SLT ISZERO PUSH2 0x62 JUMPI PUSH0 DUP1 REVERT JUMPDEST DUP2 MLOAD PUSH1 0x1 PUSH1 0x1 PUSH1 0xA0 SHL SUB DUP2 AND DUP2 EQ PUSH2 0x78 JUMPI PUSH0 DUP1 REVERT JUMPDEST SWAP4 SWAP3 POP POP POP JUMP JUMPDEST PUSH2 0x9A6 DUP1 PUSH2 0x8C PUSH0 CODECOPY PUSH0 RETURN INVALID PUSH1 0x80 PUSH1 0x40 MSTORE PUSH1 0x4 CALLDATASIZE LT PUSH2 0x6D JUMPI PUSH0 CALLDATALOAD PUSH1 0xE0 SHR DUP1 PUSH4 0x66FC1FF2 GT PUSH2 0x4A JUMPI DUP1 PUSH4 0x66FC1FF2 EQ PUSH2 0x15C JUMPI DUP1 PUSH4 0xA28889E1 EQ PUSH2 0x1A2 JUMPI DUP1 PUSH4 0xC03B0E5A EQ PUSH2 0x1C5 JUMPI DUP1 PUSH4 0xF2D0D010 EQ PUSH2 0x1E4 JUMPI STOP JUMPDEST DUP1 PUSH4 0x43859632 EQ PUSH2 0x76 JUMPI DUP1 PUSH4 0x564A565D EQ PUSH2 0xC4 JUMPI DUP1 PUSH4 0x56781388 EQ PUSH2 0x13D JUMPI STOP JUMPDEST CALLDATASIZE PUSH2 0x74 JUMPI STOP JUMPDEST STOP JUMPDEST CALLVALUE DUP1 ISZERO PUSH2 0x81 JUMPI PUSH0 DUP1 REVERT JUMPDEST POP PUSH2 0xAF PUSH2 0x90 CALLDATASIZE PUSH1 0x4 PUSH2 0x6B4 JUMP JUMPDEST PUSH1 0x4 PUSH1 0x20 SWAP1 DUP2 MSTORE PUSH0 SWAP3 DUP4 MSTORE PUSH1 0x40 DUP1 DUP5 KECCAK256 SWAP1 SWAP2 MSTORE SWAP1 DUP3 MSTORE SWAP1 KECCAK256 SLOAD PUSH1 0xFF AND DUP2 JUMP JUMPDEST PUSH1 0x40 MLOAD SWAP1 ISZERO ISZERO DUP2 MSTORE PUSH1 0x20 ADD JUMPDEST PUSH1 0x40 MLOAD DUP1 SWAP2 SUB SWAP1 RETURN JUMPDEST CALLVALUE DUP1 ISZERO PUSH2 0xCF JUMPI PUSH0 DUP1 REVERT JUMPDEST POP PUSH2 0x12A PUSH2 0xDE CALLDATASIZE PUSH1 0x4 PUSH2 0x6E2 JUMP JUMPDEST PUSH1 0x2 PUSH1 0x20 DUP2 SWAP1 MSTORE PUSH0 SWAP2 DUP3 MSTORE PUSH1 0x40 SWAP1 SWAP2 KECCAK256 DUP1 SLOAD PUSH1 0x1 DUP3 ADD SLOAD SWAP3 DUP3 ADD SLOAD PUSH1 0x3 DUP4 ADD SLOAD PUSH1 0x5 DUP5 ADD SLOAD PUSH1 0x6 DUP6 ADD SLOAD PUSH1 0x7 SWAP1 SWAP6 ADD SLOAD SWAP4 SWAP6 PUSH1 0x1 PUSH1 0x1 PUSH1 0xA0 SHL SUB SWAP1 DUP2 AND SWAP6 SWAP4 AND SWAP4 SWAP2 SWAP3 PUSH1 0xFF SWAP1 SWAP2 AND SWAP2 DUP8 JUMP JUMPDEST PUSH1 0x40 MLOAD PUSH2 0xBB SWAP8 SWAP7 SWAP6 SWAP5 SWAP4 SWAP3 SWAP2 SWAP1 PUSH2 0x70D JUMP JUMPDEST CALLVALUE DUP1 ISZERO PUSH2 0x148 JUMPI PUSH0 DUP1 REVERT JUMPDEST POP PUSH2 0x74 PUSH2 0x157 CALLDATASIZE PUSH1 0x4 PUSH2 0x760 JUMP JUMPDEST PUSH2 0x21A JUMP JUMPDEST CALLVALUE DUP1 ISZERO PUSH2 0x167 JUMPI PUSH0 DUP1 REVERT JUMPDEST POP PUSH2 0x195 PUSH2 0x176 CALLDATASIZE PUSH1 0x4 PUSH2 0x6B4 JUMP JUMPDEST PUSH1 0x3 PUSH1 0x20 SWAP1 DUP2 MSTORE PUSH0 SWAP3 DUP4 MSTORE PUSH1 0x40 DUP1 DUP5 KECCAK256 SWAP1 SWAP2 MSTORE SWAP1 DUP3 MSTORE SWAP1 KECCAK256 SLOAD PUSH1 0xFF AND DUP2 JUMP JUMPDEST PUSH1 0x40 MLOAD PUSH2 0xBB SWAP2 SWAP1 PUSH2 0x786 JUMP JUMPDEST CALLVALUE DUP1 ISZERO PUSH2 0x1AD JUMPI PUSH0 DUP1 REVERT JUMPDEST POP PUSH2 0x1B7 PUSH1 0x1 SLOAD DUP2 JUMP JUMPDEST PUSH1 0x40 MLOAD SWAP1 DUP2 MSTORE PUSH1 0x20 ADD PUSH2 0xBB JUMP JUMPDEST CALLVALUE DUP1 ISZERO PUSH2 0x1D0 JUMPI PUSH0 DUP1 REVERT JUMPDEST POP PUSH2 0x1B7 PUSH2 0x1DF CALLDATASIZE PUSH1 0x4 PUSH2 0x7A0 JUMP JUMPDEST PUSH2 0x3BB JUMP JUMPDEST CALLVALUE DUP1 ISZERO PUSH2 0x1EF JUMPI PUSH0 DUP1 REVERT JUMPDEST POP PUSH0 SLOAD PUSH2 0x202 SWAP1 PUSH1 0x1 PUSH1 0x1 PUSH1 0xA0 SHL SUB AND DUP2 JUMP JUMPDEST PUSH1 0x40 MLOAD PUSH1 0x1 PUSH1 0x1 PUSH1 0xA0 SHL SUB SWAP1 SWAP2 AND DUP2 MSTORE PUSH1 0x20 ADD PUSH2 0xBB JUMP JUMPDEST PUSH0 DUP3 DUP2 MSTORE PUSH1 0x2 PUSH1 0x20 MSTORE PUSH1 0x40 DUP2 KECCAK256 SWAP1 DUP1 JUMPDEST PUSH1 0x4 DUP4 ADD SLOAD DUP2 LT ISZERO PUSH2 0x289 JUMPI CALLER PUSH1 0x1 PUSH1 0x1 PUSH1 0xA0 SHL SUB AND DUP4 PUSH1 0x4 ADD DUP3 DUP2 SLOAD DUP2 LT PUSH2 0x255 JUMPI PUSH2 0x255 PUSH2 0x7E7 JUMP JUMPDEST PUSH0 SWAP2 DUP3 MSTORE PUSH1 0x20 SWAP1 SWAP2 KECCAK256 ADD SLOAD PUSH1 0x1 PUSH1 0x1 PUSH1 0xA0 SHL SUB AND SUB PUSH2 0x277 JUMPI PUSH1 0x1 SWAP2 POP PUSH2 0x289 JUMP JUMPDEST DUP1 PUSH2 0x281 DUP2 PUSH2 0x80F JUMP JUMPDEST SWAP2 POP POP PUSH2 0x22A JUMP JUMPDEST POP PUSH0 DUP5 DUP2 MSTORE PUSH1 0x3 PUSH1 0x20 SWAP1 DUP2 MSTORE PUSH1 0x40 DUP1 DUP4 KECCAK256 CALLER DUP5 MSTORE SWAP1 SWAP2 MSTORE SWAP1 KECCAK256 DUP1 SLOAD DUP5 SWAP2 SWAP1 PUSH1 0xFF NOT AND PUSH1 0x1 DUP4 PUSH1 0x2 DUP2 GT ISZERO PUSH2 0x2BF JUMPI PUSH2 0x2BF PUSH2 0x6F9 JUMP JUMPDEST MUL OR SWAP1 SSTORE POP PUSH0 DUP5 DUP2 MSTORE PUSH1 0x4 PUSH1 0x20 SWAP1 DUP2 MSTORE PUSH1 0x40 DUP1 DUP4 KECCAK256 CALLER DUP5 MSTORE SWAP1 SWAP2 MSTORE SWAP1 KECCAK256 DUP1 SLOAD PUSH1 0xFF NOT AND PUSH1 0x1 SWAP1 DUP2 OR SWAP1 SWAP2 SSTORE DUP4 PUSH1 0x2 DUP2 GT ISZERO PUSH2 0x2FC JUMPI PUSH2 0x2FC PUSH2 0x6F9 JUMP JUMPDEST SUB PUSH2 0x31C JUMPI PUSH1 0x6 DUP3 ADD DUP1 SLOAD SWAP1 PUSH0 PUSH2 0x312 DUP4 PUSH2 0x80F JUMP JUMPDEST SWAP2 SWAP1 POP SSTORE POP PUSH2 0x34C JUMP JUMPDEST PUSH1 0x2 DUP4 PUSH1 0x2 DUP2 GT ISZERO PUSH2 0x330 JUMPI PUSH2 0x330 PUSH2 0x6F9 JUMP JUMPDEST SUB PUSH2 0x34C JUMPI PUSH1 0x7 DUP3 ADD DUP1 SLOAD SWAP1 PUSH0 PUSH2 0x346 DUP4 PUSH2 0x80F JUMP JUMPDEST SWAP2 SWAP1 POP SSTORE POP JUMPDEST CALLER PUSH1 0x1 PUSH1 0x1 PUSH1 0xA0 SHL SUB AND DUP5 PUSH32 0xEBA4866100B822F0F391E610E7EDFAB790B9E8766C0012733C26B2F1858E8DD7 DUP6 PUSH1 0x40 MLOAD PUSH2 0x386 SWAP2 SWAP1 PUSH2 0x786 JUMP JUMPDEST PUSH1 0x40 MLOAD DUP1 SWAP2 SUB SWAP1 LOG3 PUSH1 0x4 DUP3 ADD SLOAD PUSH1 0x7 DUP4 ADD SLOAD PUSH1 0x6 DUP5 ADD SLOAD PUSH2 0x3A7 SWAP2 SWAP1 PUSH2 0x827 JUMP JUMPDEST SUB PUSH2 0x3B5 JUMPI PUSH2 0x3B5 DUP5 PUSH2 0x507 JUMP JUMPDEST POP POP POP POP JUMP JUMPDEST PUSH1 0x1 DUP1 SLOAD PUSH0 SWAP2 DUP3 PUSH2 0x3CB DUP4 PUSH2 0x80F JUMP JUMPDEST SWAP1 SWAP2 SSTORE POP POP PUSH0 DUP1 SLOAD PUSH1 0x1 SLOAD PUSH1 0x40 MLOAD PUSH4 0xCBD88663 PUSH1 0xE0 SHL DUP2 MSTORE PUSH1 0x4 DUP2 ADD SWAP2 SWAP1 SWAP2 MSTORE PUSH1 0x3 PUSH1 0x24 DUP3 ADD MSTORE PUSH1 0x1 PUSH1 0x1 PUSH1 0xA0 SHL SUB SWAP1 SWAP2 AND SWAP1 PUSH4 0xCBD88663 SWAP1 PUSH1 0x44 ADD PUSH0 PUSH1 0x40 MLOAD DUP1 DUP4 SUB DUP2 DUP7 GAS STATICCALL ISZERO DUP1 ISZERO PUSH2 0x421 JUMPI RETURNDATASIZE PUSH0 DUP1 RETURNDATACOPY RETURNDATASIZE PUSH0 REVERT JUMPDEST POP POP POP POP PUSH1 0x40 MLOAD RETURNDATASIZE PUSH0 DUP3 RETURNDATACOPY PUSH1 0x1F RETURNDATASIZE SWAP1 DUP2 ADD PUSH1 0x1F NOT AND DUP3 ADD PUSH1 0x40 MSTORE PUSH2 0x448 SWAP2 SWAP1 DUP2 ADD SWAP1 PUSH2 0x864 JUMP JUMPDEST PUSH1 0x1 DUP1 SLOAD PUSH0 SWAP1 DUP2 MSTORE PUSH1 0x2 PUSH1 0x20 DUP2 DUP2 MSTORE PUSH1 0x40 SWAP1 SWAP3 KECCAK256 DUP11 DUP2 SSTORE SWAP3 DUP4 ADD DUP1 SLOAD PUSH1 0x1 PUSH1 0x1 PUSH1 0xA0 SHL SUB DUP1 DUP13 AND PUSH1 0x1 PUSH1 0x1 PUSH1 0xA0 SHL SUB NOT SWAP3 DUP4 AND OR SWAP1 SWAP3 SSTORE SWAP2 DUP5 ADD DUP1 SLOAD SWAP2 DUP10 AND SWAP2 SWAP1 SWAP3 AND OR SWAP1 SSTORE PUSH1 0x3 DUP3 ADD DUP8 SWAP1 SSTORE DUP3 MLOAD SWAP3 SWAP4 POP SWAP1 SWAP2 PUSH2 0x4AE SWAP2 PUSH1 0x4 DUP5 ADD SWAP2 SWAP1 DUP6 ADD SWAP1 PUSH2 0x626 JUMP JUMPDEST POP PUSH1 0x5 DUP2 ADD DUP1 SLOAD PUSH1 0xFF NOT AND SWAP1 SSTORE PUSH1 0x1 SLOAD PUSH1 0x40 MLOAD DUP7 SWAP2 SWAP1 PUSH32 0xBC02DBD6DBD37AB9895E57DAEF2A60ACA03BC60198AFDC22EFF1BC4D3A8218FA SWAP1 PUSH2 0x4F1 SWAP1 DUP7 SWAP1 PUSH2 0x924 JUMP JUMPDEST PUSH1 0x40 MLOAD DUP1 SWAP2 SUB SWAP1 LOG3 POP POP PUSH1 0x1 SLOAD SWAP6 SWAP5 POP POP POP POP POP JUMP JUMPDEST PUSH0 DUP2 DUP2 MSTORE PUSH1 0x2 PUSH1 0x20 MSTORE PUSH1 0x40 SWAP1 KECCAK256 PUSH1 0x5 DUP2 ADD DUP1 SLOAD PUSH1 0xFF NOT AND PUSH1 0x1 OR SWAP1 SSTORE PUSH1 0x7 DUP2 ADD SLOAD PUSH1 0x6 DUP3 ADD SLOAD GT ISZERO PUSH2 0x5B5 JUMPI DUP2 PUSH32 0x23027F09420C04297FD9FAC15C0DD47BC6D9694CBB247239E45A398BDFF88BA PUSH1 0x40 MLOAD PUSH2 0x5A9 SWAP1 PUSH1 0x20 DUP1 DUP3 MSTORE PUSH1 0x2D SWAP1 DUP3 ADD MSTORE PUSH32 0x52554C494E473A20436C69656E742056696E646963617465642E204170707261 PUSH1 0x40 DUP3 ADD MSTORE PUSH13 0x34B9B2B91029B630B9B432B217 PUSH1 0x99 SHL PUSH1 0x60 DUP3 ADD MSTORE PUSH1 0x80 ADD SWAP1 JUMP JUMPDEST PUSH1 0x40 MLOAD DUP1 SWAP2 SUB SWAP1 LOG2 POP POP JUMP JUMPDEST DUP2 PUSH32 0x23027F09420C04297FD9FAC15C0DD47BC6D9694CBB247239E45A398BDFF88BA PUSH1 0x40 MLOAD PUSH2 0x5A9 SWAP1 PUSH1 0x20 DUP1 DUP3 MSTORE PUSH1 0x28 SWAP1 DUP3 ADD MSTORE PUSH32 0x52554C494E473A2041707072616973657220436C6561722E2052656C65617365 PUSH1 0x40 DUP3 ADD MSTORE PUSH8 0x1022B9B1B937BB97 PUSH1 0xC1 SHL PUSH1 0x60 DUP3 ADD MSTORE PUSH1 0x80 ADD SWAP1 JUMP JUMPDEST DUP3 DUP1 SLOAD DUP3 DUP3 SSTORE SWAP1 PUSH0 MSTORE PUSH1 0x20 PUSH0 KECCAK256 SWAP1 DUP2 ADD SWAP3 DUP3 ISZERO PUSH2 0x679 JUMPI SWAP2 PUSH1 0x20 MUL DUP3 ADD JUMPDEST DUP3 DUP2 GT ISZERO PUSH2 0x679 JUMPI DUP3 MLOAD DUP3 SLOAD PUSH1 0x1 PUSH1 0x1 PUSH1 0xA0 SHL SUB NOT AND PUSH1 0x1 PUSH1 0x1 PUSH1 0xA0 SHL SUB SWAP1 SWAP2 AND OR DUP3 SSTORE PUSH1 0x20 SWAP1 SWAP3 ADD SWAP2 PUSH1 0x1 SWAP1 SWAP2 ADD SWAP1 PUSH2 0x644 JUMP JUMPDEST POP PUSH2 0x685 SWAP3 SWAP2 POP PUSH2 0x689 JUMP JUMPDEST POP SWAP1 JUMP JUMPDEST JUMPDEST DUP1 DUP3 GT ISZERO PUSH2 0x685 JUMPI PUSH0 DUP2 SSTORE PUSH1 0x1 ADD PUSH2 0x68A JUMP JUMPDEST PUSH1 0x1 PUSH1 0x1 PUSH1 0xA0 SHL SUB DUP2 AND DUP2 EQ PUSH2 0x6B1 JUMPI PUSH0 DUP1 REVERT JUMPDEST POP JUMP JUMPDEST PUSH0 DUP1 PUSH1 0x40 DUP4 DUP6 SUB SLT ISZERO PUSH2 0x6C5 JUMPI PUSH0 DUP1 REVERT JUMPDEST DUP3 CALLDATALOAD SWAP2 POP PUSH1 0x20 DUP4 ADD CALLDATALOAD PUSH2 0x6D7 DUP2 PUSH2 0x69D JUMP JUMPDEST DUP1 SWAP2 POP POP SWAP3 POP SWAP3 SWAP1 POP JUMP JUMPDEST PUSH0 PUSH1 0x20 DUP3 DUP5 SUB SLT ISZERO PUSH2 0x6F2 JUMPI PUSH0 DUP1 REVERT JUMPDEST POP CALLDATALOAD SWAP2 SWAP1 POP JUMP JUMPDEST PUSH4 0x4E487B71 PUSH1 0xE0 SHL PUSH0 MSTORE PUSH1 0x21 PUSH1 0x4 MSTORE PUSH1 0x24 PUSH0 REVERT JUMPDEST DUP8 DUP2 MSTORE PUSH1 0x1 PUSH1 0x1 PUSH1 0xA0 SHL SUB DUP8 DUP2 AND PUSH1 0x20 DUP4 ADD MSTORE DUP7 AND PUSH1 0x40 DUP3 ADD MSTORE PUSH1 0x60 DUP2 ADD DUP6 SWAP1 MSTORE PUSH1 0xE0 DUP2 ADD PUSH1 0x2 DUP6 LT PUSH2 0x742 JUMPI PUSH2 0x742 PUSH2 0x6F9 JUMP JUMPDEST DUP5 PUSH1 0x80 DUP4 ADD MSTORE DUP4 PUSH1 0xA0 DUP4 ADD MSTORE DUP3 PUSH1 0xC0 DUP4 ADD MSTORE SWAP9 SWAP8 POP POP POP POP POP POP POP POP JUMP JUMPDEST PUSH0 DUP1 PUSH1 0x40 DUP4 DUP6 SUB SLT ISZERO PUSH2 0x771 JUMPI PUSH0 DUP1 REVERT JUMPDEST DUP3 CALLDATALOAD SWAP2 POP PUSH1 0x20 DUP4 ADD CALLDATALOAD PUSH1 0x3 DUP2 LT PUSH2 0x6D7 JUMPI PUSH0 DUP1 REVERT JUMPDEST PUSH1 0x20 DUP2 ADD PUSH1 0x3 DUP4 LT PUSH2 0x79A JUMPI PUSH2 0x79A PUSH2 0x6F9 JUMP JUMPDEST SWAP2 SWAP1 MSTORE SWAP1 JUMP JUMPDEST PUSH0 DUP1 PUSH0 DUP1 PUSH1 0x80 DUP6 DUP8 SUB SLT ISZERO PUSH2 0x7B3 JUMPI PUSH0 DUP1 REVERT JUMPDEST DUP5 CALLDATALOAD SWAP4 POP PUSH1 0x20 DUP6 ADD CALLDATALOAD PUSH2 0x7C5 DUP2 PUSH2 0x69D JUMP JUMPDEST SWAP3 POP PUSH1 0x40 DUP6 ADD CALLDATALOAD SWAP2 POP PUSH1 0x60 DUP6 ADD CALLDATALOAD PUSH2 0x7DC DUP2 PUSH2 0x69D JUMP JUMPDEST SWAP4 SWAP7 SWAP3 SWAP6 POP SWAP1 SWAP4 POP POP JUMP JUMPDEST PUSH4 0x4E487B71 PUSH1 0xE0 SHL PUSH0 MSTORE PUSH1 0x32 PUSH1 0x4 MSTORE PUSH1 0x24 PUSH0 REVERT JUMPDEST PUSH4 0x4E487B71 PUSH1 0xE0 SHL PUSH0 MSTORE PUSH1 0x11 PUSH1 0x4 MSTORE PUSH1 0x24 PUSH0 REVERT JUMPDEST PUSH0 PUSH1 0x1 DUP3 ADD PUSH2 0x820 JUMPI PUSH2 0x820 PUSH2 0x7FB JUMP JUMPDEST POP PUSH1 0x1 ADD SWAP1 JUMP JUMPDEST DUP1 DUP3 ADD DUP1 DUP3 GT ISZERO PUSH2 0x83A JUMPI PUSH2 0x83A PUSH2 0x7FB JUMP JUMPDEST SWAP3 SWAP2 POP POP JUMP JUMPDEST PUSH4 0x4E487B71 PUSH1 0xE0 SHL PUSH0 MSTORE PUSH1 0x41 PUSH1 0x4 MSTORE PUSH1 0x24 PUSH0 REVERT JUMPDEST DUP1 MLOAD PUSH2 0x85F DUP2 PUSH2 0x69D JUMP JUMPDEST SWAP2 SWAP1 POP JUMP JUMPDEST PUSH0 PUSH1 0x20 DUP1 DUP4 DUP6 SUB SLT ISZERO PUSH2 0x875 JUMPI PUSH0 DUP1 REVERT JUMPDEST DUP3 MLOAD PUSH8 0xFFFFFFFFFFFFFFFF DUP1 DUP3 GT ISZERO PUSH2 0x88C JUMPI PUSH0 DUP1 REVERT JUMPDEST DUP2 DUP6 ADD SWAP2 POP DUP6 PUSH1 0x1F DUP4 ADD SLT PUSH2 0x89F JUMPI PUSH0 DUP1 REVERT JUMPDEST DUP2 MLOAD DUP2 DUP2 GT ISZERO PUSH2 0x8B1 JUMPI PUSH2 0x8B1 PUSH2 0x840 JUMP JUMPDEST DUP1 PUSH1 0x5 SHL PUSH1 0x40 MLOAD PUSH1 0x1F NOT PUSH1 0x3F DUP4 ADD AND DUP2 ADD DUP2 DUP2 LT DUP6 DUP3 GT OR ISZERO PUSH2 0x8D6 JUMPI PUSH2 0x8D6 PUSH2 0x840 JUMP JUMPDEST PUSH1 0x40 MSTORE SWAP2 DUP3 MSTORE DUP5 DUP3 ADD SWAP3 POP DUP4 DUP2 ADD DUP6 ADD SWAP2 DUP9 DUP4 GT ISZERO PUSH2 0x8F3 JUMPI PUSH0 DUP1 REVERT JUMPDEST SWAP4 DUP6 ADD SWAP4 JUMPDEST DUP3 DUP6 LT ISZERO PUSH2 0x918 JUMPI PUSH2 0x909 DUP6 PUSH2 0x854 JUMP JUMPDEST DUP5 MSTORE SWAP4 DUP6 ADD SWAP4 SWAP3 DUP6 ADD SWAP3 PUSH2 0x8F8 JUMP JUMPDEST SWAP9 SWAP8 POP POP POP POP POP POP POP POP JUMP JUMPDEST PUSH1 0x20 DUP1 DUP3 MSTORE DUP3 MLOAD DUP3 DUP3 ADD DUP2 SWAP1 MSTORE PUSH0 SWAP2 SWAP1 DUP5 DUP3 ADD SWAP1 PUSH1 0x40 DUP6 ADD SWAP1 DUP5 JUMPDEST DUP2 DUP2 LT ISZERO PUSH2 0x964 JUMPI DUP4 MLOAD PUSH1 0x1 PUSH1 0x1 PUSH1 0xA0 SHL SUB AND DUP4 MSTORE SWAP3 DUP5 ADD SWAP3 SWAP2 DUP5 ADD SWAP2 PUSH1 0x1 ADD PUSH2 0x93F JUMP JUMPDEST POP SWAP1 SWAP7 SWAP6 POP POP POP POP POP POP JUMP INVALID LOG2 PUSH5 0x6970667358 0x22 SLT KECCAK256 DUP11 0xD5 0xB1 PUSH29 0x2214A6B93200DFF660035F77C341A7A3BF8493FEDB66DD66D2DE587464 PUSH20 0x6F6C634300081400330000000000000000000000 "},"methodIdentifiers":{"castVote(uint256,uint8)":"56781388","disputeCount()":"a28889e1","disputes(uint256)":"564a565d","hasVoted(uint256,address)":"43859632","initiateDispute(uint256,address,uint256,address)":"c03b0e5a","jurorManager()":"f2d0d010","jurorVotes(uint256,address)":"66fc1ff2"}}}}}