{
  "_format": "hh3-artifact-1",
  "contractName": "JurorManager",
  "sourceName": "contracts/JurorManager.sol",
  "abi": [
    {
      "inputs": [
        {
          "internalType": "address",
          "name": "_token",
          "type": "address"
        }
      ],
      "stateMutability": "nonpayable",
      "type": "constructor"
    },
    {
      "anonymous": false,
      "inputs": [
        {
          "indexed": true,
          "internalType": "address",
          "name": "juror",
          "type": "address"
        },
        {
          "indexed": false,
          "internalType": "uint256",
          "name": "amount",
          "type": "uint256"
        }
      ],
      "name": "JurorStaked",
      "type": "event"
    },
    {
      "anonymous": false,
      "inputs": [
        {
          "indexed": true,
          "internalType": "address",
          "name": "juror",
          "type": "address"
        },
        {
          "indexed": false,
          "internalType": "uint256",
          "name": "amount",
          "type": "uint256"
        }
      ],
      "name": "JurorUnstaked",
      "type": "event"
    },
    {
      "inputs": [
        {
          "internalType": "uint256",
          "name": "",
          "type": "uint256"
        }
      ],
      "name": "activeJurors",
      "outputs": [
        {
          "internalType": "address",
          "name": "",
          "type": "address"
        }
      ],
      "stateMutability": "view",
      "type": "function"
    },
    {
      "inputs": [
        {
          "internalType": "uint256",
          "name": "_disputeId",
          "type": "uint256"
        },
        {
          "internalType": "uint256",
          "name": "_count",
          "type": "uint256"
        }
      ],
      "name": "drawJurors",
      "outputs": [
        {
          "internalType": "address[]",
          "name": "",
          "type": "address[]"
        }
      ],
      "stateMutability": "view",
      "type": "function"
    },
    {
      "inputs": [
        {
          "internalType": "address",
          "name": "",
          "type": "address"
        }
      ],
      "name": "isJuror",
      "outputs": [
        {
          "internalType": "bool",
          "name": "",
          "type": "bool"
        }
      ],
      "stateMutability": "view",
      "type": "function"
    },
    {
      "inputs": [
        {
          "internalType": "address",
          "name": "",
          "type": "address"
        }
      ],
      "name": "jurorIndex",
      "outputs": [
        {
          "internalType": "uint256",
          "name": "",
          "type": "uint256"
        }
      ],
      "stateMutability": "view",
      "type": "function"
    },
    {
      "inputs": [],
      "name": "minStake",
      "outputs": [
        {
          "internalType": "uint256",
          "name": "",
          "type": "uint256"
        }
      ],
      "stateMutability": "view",
      "type": "function"
    },
    {
      "inputs": [
        {
          "internalType": "address",
          "name": "_juror",
          "type": "address"
        },
        {
          "internalType": "uint256",
          "name": "_amount",
          "type": "uint256"
        }
      ],
      "name": "rewardJuror",
      "outputs": [],
      "stateMutability": "nonpayable",
      "type": "function"
    },
    {
      "inputs": [
        {
          "internalType": "address",
          "name": "_juror",
          "type": "address"
        },
        {
          "internalType": "uint256",
          "name": "_amount",
          "type": "uint256"
        }
      ],
      "name": "slashJuror",
      "outputs": [],
      "stateMutability": "nonpayable",
      "type": "function"
    },
    {
      "inputs": [
        {
          "internalType": "uint256",
          "name": "_amount",
          "type": "uint256"
        }
      ],
      "name": "stakeAsJuror",
      "outputs": [],
      "stateMutability": "nonpayable",
      "type": "function"
    },
    {
      "inputs": [
        {
          "internalType": "address",
          "name": "",
          "type": "address"
        }
      ],
      "name": "stakes",
      "outputs": [
        {
          "internalType": "uint256",
          "name": "",
          "type": "uint256"
        }
      ],
      "stateMutability": "view",
      "type": "function"
    },
    {
      "inputs": [],
      "name": "token",
      "outputs": [
        {
          "internalType": "contract ICMNToken",
          "name": "",
          "type": "address"
        }
      ],
      "stateMutability": "view",
      "type": "function"
    }
  ],
  "bytecode": "0x608060405269021e19e0c9bab240000060015534801561001d575f80fd5b5060405161091d38038061091d83398101604081905261003c91610060565b5f80546001600160a01b0319166001600160a01b039290921691909117905561008d565b5f60208284031215610070575f80fd5b81516001600160a01b0381168114610086575f80fd5b9392505050565b6108838061009a5f395ff3fe608060405234801561000f575f80fd5b506004361061009b575f3560e01c806395152b841161006357806395152b8414610134578063bd78c15014610147578063cbd8866314610166578063e2da844d14610186578063fc0c546a146101b1575f80fd5b806316934fc41461009f5780632037a7aa146100d1578063375b3c0a146101035780633bda99781461010c5780639043a4df14610121575b5f80fd5b6100be6100ad3660046106ca565b60036020525f908152604090205481565b6040519081526020015b60405180910390f35b6100f36100df3660046106ca565b60056020525f908152604090205460ff1681565b60405190151581526020016100c8565b6100be60015481565b61011f61011a3660046106ea565b6101c3565b005b61011f61012f3660046106ea565b6102d2565b61011f610142366004610712565b61030a565b6100be6101553660046106ca565b60046020525f908152604090205481565b610179610174366004610729565b6104f1565b6040516100c89190610749565b610199610194366004610712565b610687565b6040516001600160a01b0390911681526020016100c8565b5f54610199906001600160a01b031681565b6001600160a01b0382165f9081526003602052604090205481111561022f5760405162461bcd60e51b815260206004820152601b60248201527f496e73756666696369656e74207374616b6520746f20736c617368000000000060448201526064015b60405180910390fd5b6001600160a01b0382165f90815260036020526040812080548392906102569084906107a9565b90915550505f5460405163a9059cbb60e01b8152336004820152602481018390526001600160a01b039091169063a9059cbb906044015b6020604051808303815f875af11580156102a9573d5f803e3d5ffd5b505050506040513d601f19601f820116820180604052508101906102cd91906107bc565b505050565b5f5460405163a9059cbb60e01b81526001600160a01b038481166004830152602482018490529091169063a9059cbb9060440161028d565b60015481101561035c5760405162461bcd60e51b815260206004820152601f60248201527f42656c6f77206d696e696d756d207374616b6520726571756972656d656e74006044820152606401610226565b5f546040516323b872dd60e01b8152336004820152306024820152604481018390526001600160a01b03909116906323b872dd906064016020604051808303815f875af11580156103af573d5f803e3d5ffd5b505050506040513d601f19601f820116820180604052508101906103d391906107bc565b6104175760405162461bcd60e51b815260206004820152601560248201527414dd185ad9481d1c985b9cd9995c8819985a5b1959605a1b6044820152606401610226565b335f90815260036020526040812080548392906104359084906107db565b9091555050335f9081526005602052604090205460ff166104b957335f818152600560209081526040808320805460ff19166001908117909155600280546004909452918420839055820181559091527f405787fa12a823e0f2b7631cc41b3ba8828b3321ca811111fa75cd3aa3bb5ace0180546001600160a01b03191690911790555b60405181815233907fc9626d754b3720da351a26831dc4d1481cb9f2dd7ec9ba5356f710bcf4354b599060200160405180910390a250565b6002546060908211156105465760405162461bcd60e51b815260206004820152601e60248201527f496e73756666696369656e7420676c6f62616c206a75726f7220706f6f6c00006044820152606401610226565b5f8267ffffffffffffffff811115610560576105606107ee565b604051908082528060200260200182016040528015610589578160200160208202803683370190505b506002546040805142602080830191909152448284015260608083018a90528351808403909101815260809092019092528051910120919250905f5b8581101561067a575f8383836040516020016105eb929190918252602082015260400190565b604051602081830303815290604052805190602001205f1c61060d9190610802565b90506002818154811061062257610622610821565b905f5260205f20015f9054906101000a90046001600160a01b031685838151811061064f5761064f610821565b6001600160a01b0390921660209283029190910190910152508061067281610835565b9150506105c5565b5091925050505b92915050565b60028181548110610696575f80fd5b5f918252602090912001546001600160a01b0316905081565b80356001600160a01b03811681146106c5575f80fd5b919050565b5f602082840312156106da575f80fd5b6106e3826106af565b9392505050565b5f80604083850312156106fb575f80fd5b610704836106af565b946020939093013593505050565b5f60208284031215610722575f80fd5b5035919050565b5f806040838503121561073a575f80fd5b50508035926020909101359150565b602080825282518282018190525f9190848201906040850190845b818110156107895783516001600160a01b031683529284019291840191600101610764565b50909695505050505050565b634e487b7160e01b5f52601160045260245ffd5b8181038181111561068157610681610795565b5f602082840312156107cc575f80fd5b815180151581146106e3575f80fd5b8082018082111561068157610681610795565b634e487b7160e01b5f52604160045260245ffd5b5f8261081c57634e487b7160e01b5f52601260045260245ffd5b500690565b634e487b7160e01b5f52603260045260245ffd5b5f6001820161084657610846610795565b506001019056fea2646970667358221220804e053d8985280d55fbd452101d6c568ebd3009731ea00562afdbfc2414a65164736f6c63430008140033",
  "linkReferences": {},
  "deployedLinkReferences": {},
  "immutableReferences": {},
  "inputSourceName": "project/contracts/JurorManager.sol",
  "buildInfoId": "solc-0_8_20-23277229369dc916e150d31b1837b92364280d0c"
}